:060000000A128A1110280B
:10000800FE00030EF3000408F4000A08F5007F0858
:10001800F6000A128A1129280A128A111328F701F0
:10002800F801F901FA0183120313A001A101A20149
:10003800A301A401A501A601A701A801A901AA017C
:10004800AB0183010A128A11C5290B1C2C282D2803
:100058004B28831203130618322833283E28013010
:10006800A6070318A70A0030A7070130F200720894
:1000780085074A288618412842284A28FF30A607BB
:100088000318A70AFF30A707013085020B100B1DC4
:100098004E284F2806290A128A11CE210A128A11DF
:1000A8000A128A116A210A128A1183120313270875
:1000B800803AFF0080307F02031D64280A30260240
:1000C800031C67286828732883120313A601A70155
:1000D8000130A8070318A90A0030A907A428831229
:1000E80003132908803AFF0080307F02031D7E2811
:1000F8000A302802031C812882288D2883120313C2
:10010800A801A9010130AA070318AB0A0030AB0700
:10011800A428831203132B08803AFF0080307F0243
:10012800031D98280A302A02031C9B289C28A4280F
:1001380083120313A601A701A801A901AA01AB0113
:1001480083120313A71FA928AA28D4280930A600B8
:100158000030A700FF30A8070318A90AFF30A90735
:100168000230263E8400840A8313801FBC28BD28E1
:10017800C8280930A8000030A900FF30AA070318D2
:10018800AB0AFF30AB07D4280430263E8400840A2B
:10019800801FCF28D028D4280930AA000030AB000F
:1001A80079037A04031DD928DA28E4282708F100FE
:1001B8002608F0000A128A1111210A128A1105294B
:1001C800023079067A04031DEA28EB28F528290865
:1001D800F1002808F0000A128A1111210A128A1166
:1001E8000529033079067A04031DFB28FC28052914
:1001F8002B08F1002A08F0000A128A1111210A12AC
:100208008A110B117608FF0075088A0074088400AB
:10021800730E8300FE0E7E0E090044293F308312C0
:10022800031387006929063083120313870069299D
:100238005B3083120313870069294F30831203133D
:1002480087006929663083120313870069296D3096
:1002580083120313870069297D30831203138700F3
:100268006929073083120313870069297F308312B5
:100278000313870069296F308312031387006929E4
:100288007108003A0319492969297008003A0319C5
:100298001229013A03191729033A03191C29013AAB
:1002A80003192129073A03192629013A03192B2989
:1002B800033A03193029013A031935290F3A03196A
:1002C8003A29013A03193F29692908000130F90739
:1002D8000318FA0A0030FA077A08803AFF008030DB
:1002E8007F02031D792904307902031C7C297D29AA
:1002F8008F29F901FA018F2904308312031388002A
:100308009F2902308312031388009F29013083122A
:10031800031388009F297A08003A031994299F2912
:100328007908013A03198029033A03198529013A02
:1003380003198A299F290800831603178801890150
:100348007030831603138F040F1406148614850166
:10035800870188018113151495148B178B151614B2
:1003680096140B100B170B118B16811281110115A6
:100378008114011483120313850186018701880102
:1003880008000A128A11A0210A128A11CA290A121F
:0E0398008A1110288312031381010B11080033
:08400000FF3FFF3FFF3FFF3FC0
:04400E00D420FF3F7C
:00000001FF
