:060000000A128A110C280F
:10000800FE00030EF1000A08F2000A128A114A28BB
:100018000A128A110F28F30183010A128A11722821
:10002800831603178801890120308316031385007E
:100038000330860018308700880189018312031372
:1000480085018601870188018901831603130F083A
:100058008F3940388F000F148113151495148312AB
:1000680003131408F03904389400141294168316F4
:100078000313141794178B170B178B151614961454
:100088008C150B10831203138C11080083120313B1
:100098008C1D4F28502851288C110B1C542855288A
:1000A8006B2806185828592862280130F000700873
:1000B800F3070130F000700888076A288618652859
:1000C80066286A280130F302013088020B10720892
:1000D8008A00710E8300FE0E7E0E09000A128A1134
:1000E80014200A128A1173088312031393007728C5
:0600F8000A128A110C2817
:08400000FF3FFF3FFF3FFF3FC0
:04400E00D430FF3F6C
:00000001FF
