:060000000A128A110C280F
:10000800FE00030EF3000A08F4000A128A114B28B6
:100018000A128A110F28F80183010A128A1173281B
:1000280001308316031788008901013083160313F2
:10003800850001308600870188018312031385013A
:10004800860187018801831603130F088F396038EA
:100058008F000F14811315149514831203131F14A2
:10006800C3309F051F083F3940389F00831603138C
:100078001F129F169F138B170B170C178B1516142F
:1000880096140B10831203130C138C11080083129F
:1000980003130C1F5028512858281E08F200720814
:1000A800F800780888000C130B1C5B285C286C2867
:1000B80006185F2860286B287808F2007208F0009C
:1000C80000300A128A1195200A128A1163000B1057
:1000D80074088A00730E8300FE0E7E0E09000A1251
:1000E8008A1114200A128A11831203139F187D287B
:1000F8007E287F289F1400300A128A11AA200A122B
:100108008A118312031387000D30F700FB30F600C5
:10011800F60B8C28F70B8C28912878280A128A115C
:100128000C28F1007108831203178D0070088C00E9
:10013800831603178C130C158B1355308D00AA30BA
:100148008D008C140C110B108B170800F500750826
:10015800831203178D00831603178C130C14831254
:0601680003170C0808005B
:08400000FF3FFF3FFF3FFF3FC0
:04400E00D420FF3F7C
:00000001FF
