:060000000A128A110C280F
:10000800FE00030EF0000A08F1000A128A117C288B
:100018000A128A110F28F40183010A128A114C2846
:10002800831603178801890120308316031385007E
:1000380086011C308700880189018312031385011A
:100048008601870188018901831603130F088F39F8
:1000580040388F000F143F30831203139705170899
:10006800F0390C3897000F309500CF3097051408F9
:10007800F0390438940014129416831603131417D5
:1000880094178B170B178C15831203138C11080008
:100098000A128A1114200A128A11831203131308F0
:1000A800F2000310720C7B3E950013080139F20030
:1000B800F20E17087206CF397206970083160313DB
:1000C8001E08F20007300310F20CFF3E031D6728DC
:1000D8007208F300F30E8312031317087306EF393F
:1000E800730697001308880051280A128A110C28F1
:1000F800831203138C1D8128822883288C11710890
:0C0108008A00700E8300FE0E7E0E0900BF
:08400000FF3FFF3FFF3FFF3FC0
:04400E00D430FF3F6C
:00000001FF
