:060000000A128A11122809
:10000800FE00030E83120313C9000408CA000A087D
:10001800CB007F08CC000A128A11942B0A128A118D
:1000280015280A128A11C7270A128A11DF000A1234
:100038008A11C8270A128A11E000D101D201D3011E
:10004800D401D501D601D701D801D901DA01DB01E4
:10005800DC01DD01DE0183010A128A11C82E831238
:10006800031323088039A8002808AD002308A80036
:100078002807A9002908B300A21F432844284528B7
:1000880033143308031949284A285928330A031D09
:100098004E284F2857280030A3000030A200003017
:1000A800A1000030A000A21761280030A300003092
:1000B800A2000030A1000030A00027088039A80065
:1000C8002808AD062708A8002807A9002908B200B3
:1000D800A61F6F2870287128321432080319752852
:1000E80076288528320A031D7A287B288328003041
:1000F800A7000030A6000030A5000030A400A61715
:100108008D280030A7000030A6000030A500003080
:10011800A400320803199128922897283308031D50
:1001280096289728A0280030A3000030A2000030AD
:10013800A1000030A000932B2008A8002808F00098
:1001480026080A128A1176270A128A117108831260
:100158000313B9007008B8003808A800A901AA015B
:10016800AB012B08B1002A08B0002908AF00280805
:10017800AE003908A800A901AA01AB012B08B700F5
:100188002A08B6002908B5002808B4002108A800E4
:100198002808F00025080A128A1176270A128A11FF
:1001A800710883120313B9007008B8003808A80052
:1001B800A901AA01AB012808AE07290803110318F1
:1001C800013E0319E828AF072A0803110318013E66
:1001D8000319EF28B0072B0803110318013E031970
:1001E800F628B1073908A800A901AA01AB01280817
:1001F800B407290803110318013E03190429B50798
:100208002A0803110318013E03190B29B6072B0806
:1002180003110318013E03191229B7072208A80081
:100228002808F00024080A128A1176270A128A116F
:10023800710883120313B9007008B8003808A800C1
:10024800A901AA01AB012808AE0729080311031860
:10025800013E03193029AF072A0803110318013E8C
:1002680003193729B0072B0803110318013E031996
:100278003E29B1073908A800A901AA01AB0128083D
:10028800B407290803110318013E03194C29B507BF
:100298002A0803110318013E03195329B6072B082E
:1002A80003110318013E03195A29B7070830A8009B
:1002B8000310AE0DAF0DB00DB10DA80B5C292108D0
:1002C800A8002808F00024080A128A1176270A12C2
:1002D8008A11710883120313B9007008B80038082E
:1002E800A8003908A900AA01AB012808AE07290807
:1002F80003110318013E03198229AF072A080311C5
:100308000318013E03198929B0072B0803110318A4
:10031800013E03199029B1072008A8002808F00019
:1003280025080A128A1176270A128A11710883127F
:100338000313B9007008B8003808A8003908A900E4
:10034800AA01AB012808AE07290803110318013ECA
:100358000319AF29AF072A0803110318013E03192F
:10036800B629B0072B0803110318013E0319BD294C
:10037800B1070830A8000310AE0DAF0DB00DB10DD8
:10038800A80BBF292008A8002808F00024080A1292
:100398008A1176270A128A11710883120313B90089
:1003A8007008B8003808A8003908A900AA01AB01EC
:1003B8002808AE07290803110318013E0319E52987
:1003C800AF072A0803110318013E0319EC29B007E7
:1003D8002B0803110318013E0319F329B10721085B
:1003E800A8002808F00026080A128A1176270A129F
:1003F8008A11710883120313B9007008B80038080D
:10040800A8003908A900AA01AB012808B4072908DF
:1004180003110318013E0319122AB5072A0803110C
:100428000318013E0319192AB6072B0803110318EC
:10043800013E0319202AB7072208A8002808F0005F
:1004480025080A128A1176270A128A11710883125E
:100458000313B9007008B8003808A8003908A900C3
:10046800AA01AB012808B407290803110318013EA3
:1004780003193F2AB5072A0803110318013E031977
:10048800462AB6072B0803110318013E03194D2A03
:10049800B7072208A8002808F00026080A128A11BF
:1004A80076270A128A11710883120313B90070089B
:1004B800B8003808A8003908A900AA01AB0108301B
:1004C8000310A80DA90DAA0DAB0DFF3E031D642A4C
:1004D8002808B407290803110318013E0319752ACF
:1004E800B5072A0803110318013E03197C2AB60729
:1004F8002B0803110318013E0319832AB7072E0896
:10050800A8002F08A9003008AA003108AB0018304D
:100518000310AB0CAA0CA90CA80CFF3E031D8C2AD7
:100528002808B407290803110318013E03199D2A56
:10053800B5072A0803110318013E0319A42AB607B0
:100548002B0803110318013E0319AB2AB70708301B
:10055800A8000310AE0DAF0DB00DB10DA80BAD2A5C
:1005680033083207A800A901A90D2808823EB8005F
:1005780029080318013EFF3EB900DF2A0130A80010
:100588000310B40DB50DB60DB70DA80BC42AB11FD5
:10059800CE2ACF2AD02A34140130A8000310AE0D79
:1005A800AF0DB00DB10DA80BD22AFF30B807031854
:1005B800B90AFF30B907B61FE22AE32AC22AB201F4
:1005C800B11FE72AE82A042BFF302E05A800FF30C8
:1005D8002F05A900FF303005AA007F303105AB0098
:1005E8002B082A04290428040319FB2AFC2AFF2AB9
:1005F800B201B20A042B341C022B032B042BFC2A55
:1006080032080319082B092B3A2B0130B4070030A4
:1006180003180130B507003003180130B607003061
:1006280003180130B707371C1A2B1B2B3A2B340839
:10063800A8003508A9003608AA003708AB00013021
:10064800AC002B0DAB0CAA0CA90CA80CAC0B252BE1
:100658002B08B7002A08B6002908B5002808B400F6
:100668000130B8070318B90A0030B9073908803AC9
:10067800FF0080307F02031D432BFF303802031C2C
:10068800462B472B522B7F3083120313B700803041
:10069800B6000030B5000030B400872B8312031376
:1006A8003908803AFF0080307F02031D5D2B01303E
:1006B80038020318602B612B6D2B00308312031353
:1006C800B7000030B6000030B5000030B400AD010E
:1006D800872B831203133808A8002808B300FF30BB
:1006E800B405FF30B5057F30B6050030B705331CBB
:1006F8007E2B7F2B802BB6173308A8000310280CFD
:10070800A9002908B7002D08A8002808B704370849
:10071800A3003608A2003508A1003408A00008008C
:100728000C1F972B982B0C2C1F0CC500450C0F3950
:10073800003A031DA02BA12BA42B1E0886000B2C0E
:100748001F0CC500450C0F39013A031DAC2BAD2B0E
:100758000B2C1E08C500C601C701C8014808F300D4
:100768004708F2004608F1004508F00001300A1277
:100778008A11D2240A128A11730883120313A7005C
:100788007208A6007108A5007008A4003C30A300F8
:10079800A030A200A030A100A130A0000A128A1146
:1007A80033200A128A11831203132308D000220867
:1007B800CF002108CE002008CD005008A7004F0820
:1007C800A6004E08A5004D08A4004230A300C8307A
:1007D800A2000030A1000030A0000A128A113320C4
:1007E8000A128A11831203132308BD002208BC00D1
:1007F8002108BB002008BA000A128A118C250A12A7
:100808008A11831203133B08DE003A08DD000C133B
:100818000B1D0F2C102CC52C0A128A11C2270A1284
:100828008A110A128A110B270A128A1183120313DA
:100838005E08803AFF0080307F02031D252C65305A
:100848005D02031C282C292C542C6430F000003045
:10085800F100831203135E08F3005D08F2000A1228
:100868008A1108260A128A11710883120313DC0000
:100878007008DB005C08F1005B08F0006430F200EF
:100888000030F3000A128A119D270A128A11700893
:1008980083120313DD027108031CDE03DE028D2CB4
:1008A800831203135E08803AFF0080307F02031D25
:1008B8005F2C0B305D02031C622C632C8D2C0A30DC
:1008C800F0000030F100831203135E08F3005D08A6
:1008D800F2000A128A1108260A128A117108831274
:1008E8000313DA007008D9005A08F1005908F0001B
:1008F8000A30F2000030F3000A128A119D270A120A
:100908008A11700883120313DD027108031CDE03C9
:10091800DE02831203135E08D8005D08D7005F0368
:100928006004031D982C992CA32C5808F100570833
:10093800F0000A128A116F260A128A11C42C02309A
:100948005F066004031DA92CAA2CB42C5A08F100D8
:100958005908F0000A128A116F260A128A11C42C4B
:1009680003305F066004031DBA2CBB2CC42C5C0842
:10097800F1005B08F0000A128A116F260A128A1128
:100988000B11831203134C08FF004B088A004A0816
:100998008400490E8300FE0E7E0E0900F8007808D8
:1009A8000319D72CD82CEC2CF31FDB2CDC2CEC2CCB
:1009B8007009FA007109FB007209FC007309FD0057
:1009C800FA0A0319FB0A0319FC0A0319FD0AF42C95
:1009D8007308FD007208FC007108FB007008FA003B
:1009E8007308720471047004031DFB2CFC2C052D84
:1009F8000030F3000030F2000030F1000030F00069
:100A08008B2D9630F4007408F900172D0130F4008E
:100A18007408F90701300310FD0CFC0CFB0CFA0CF0
:100A2800FF3E031D0F2DFE307D05031D1C2D1D2DC2
:100A38000A2D392D0130F4007408F9070130FA073E
:100A4800003003180130FB07003003180130FC07A1
:100A5800003003180130FD0701300310FD0CFC0CB9
:100A6800FB0CFA0CFF3E031D312DFF307D05031DE5
:100A78003E2D3F2D1E2D4B2D0130F9020130F40083
:100A88000310FA0DFB0DFC0DFD0DF40B442DFC1BA2
:100A98004E2D4F2D552D023079020318542D552D0A
:100AA800402D7918582D592D612DFF30FA05FF304A
:100AB800FB057F30FC05FF30FD050310F90C7908B4
:100AC800F400F501F601F70118300310F40DF50DE7
:100AD800F60DF70DFF3E031D692D7408FA0475081D
:100AE800FB047608FC047708FD04780803197D2DBB
:100AF8007E2D832DF31F812D822D832DFD177D08DB
:100B0800F3007C08F2007B08F1007A08F000080086
:100B18000310831203133C0D3D0DBE003E08C400B4
:100B28004408031D982D992DA22D0030BD000030DA
:100B3800BC000030BB000030BA00072E3A08BE00E7
:100B48003B08BF003C08C0003D08C1001F3003102F
:100B5800C10CC00CBF0CBE0CFF3E031DAB2D3E08E4
:100B6800C2004208C300BC17FF30BA05FF30BB05FE
:100B7800FF30BC050030BD059630C402C41FC52D2A
:100B8800C62DE02D4408803A973E0318CC2DCD2D74
:100B9800CE2D992D01300310BD0CBC0CBB0CBA0C2A
:100BA800FF3E031DCF2D0130BE003E08C407031DC4
:100BB800DE2DDF2DCE2DF72D20304402031CE52D30
:100BC800E62DF22D992D0130BE000310BA0DBB0D94
:100BD800BC0DBD0DBE0BE92D0130C4024408031D38
:100BE800F62DF72DE72D43080319FB2DFC2D072EB5
:100BF800BA09BB09BC09BD09BA0A0319BB0A03191A
:100C0800BC0A0319BD0A0800F601F11F0C2E0D2EAF
:100C1800142EF009F109F00A0319F10AF601F60A8F
:100C2800F31F172E182E212EF209F309F20A0319C1
:100C3800F30A0130F4007408F606F701F8017008A9
:100C480071040319282E292E602EF501F50A372E76
:100C580001300310F00DF10DFF3E031D2D2E013064
:100C6800F4007408F507F11F3A2E3B2E2C2E0130A4
:100C78000310F70DF80DFF3E031D3C2E710873029B
:100C8800031D482E70087202031C4B2E4C2E532E47
:100C98007008F2027108031CF303F30277140130A1
:100CA8000310F10CF00CFF3E031D542E0130F50229
:100CB800031D5F2E602E3B2E76080319642E652EC9
:100CC8006A2EF709F809F70A0319F80A7808F100F3
:100CD8007708F0000800A22E3F3083120313870024
:100CE800C72E0630831203138700C72E5B3083128A
:100CF80003138700C72E4F30831203138700C72EB4
:100D08006630831203138700C72E6D3083120313D6
:100D18008700C72E7D30831203138700C72E073044
:100D2800831203138700C72E7F30831203138700B3
:100D3800C72E6F30831203138700C72E7108003A3D
:100D48000319A72EC72E7008003A0319702E013A0E
:100D58000319752E033A03197A2E013A03197F2EC7
:100D6800073A0319842E013A0319892E033A031905
:100D78008E2E013A0319932E0F3A0319982E013A31
:100D880003199D2EC72E08000A128A1141270A123C
:100D98008A110C3083160313A000A00BD12E00007B
:100DA800831203139F18D92EDA2ED42E1F0C831604
:100DB8000313A000200C0F39003A031DE42EE52E82
:100DC800EC2E831203131F08C33904389F00FD2E2D
:100DD800831203131F0C83160313A000200C0F3972
:100DE800013A031DF82EF92EFD2EC330831203138A
:100DF8009F050C3083160313A000A00B012F0000E1
:100E0800831203139F14D42E0A128A111228013058
:100E180083120313DF070318E00A0030E0076008B5
:100E2800803AFF0080307F02031D1C2F04305F02D0
:100E3800031C1F2F202F2E2F83120313DF01E00125
:100E48002E2F04308800402F02308800402F0130B8
:100E58008800402F831203136008003A0319352FC6
:100E6800402F5F08013A0319252F033A0319282F49
:100E7800013A03192B2F402F08000330831603175C
:100E880088008901831603130F088F3960388F0093
:100E98000F1403308500860187018801831203132C
:100EA8001F14C3309F051F083F3940389F00831621
:100EB80003131F129F169F138B170B170C17831200
:100EC80003130C130B118B16831603138112811154
:100ED800011581140114831203138501860187010A
:100EE80088010800F800F401F5017008F200F30128
:100EF8007208F6007308F700781C832F842F8A2F56
:100F08007608F4070318F50A7708F5070130031087
:100F1800F60DF70DFF3E031D8B2F0310F80C780814
:100F2800031D972F982F802F7508F1007408F00083
:100F38000800F401F501701CA22FA32FA92F720835
:100F4800F4070318F50A7308F50701300310F20DCA
:100F5800F30DFF3E031DAA2F01300310F10CF00C16
:100F6800FF3E031DB12F70087104031DBC2FBD2F58
:100F78009F2F7508F1007408F0000800831203130E
:0A0F880081010B1108000134003450
:08400000FF3FFF3FFF3FFF3FC0
:04400E00D420FF3F7C
:00000001FF
