:060000000A128A11122809
:10000800FE00030E83120313C9000408CA000A087D
:10001800CB007F08CC000A128A11832B0A128A119E
:10002800152883135130840061300A128A11C327BE
:100038000A128A1183010A128A11C92E8312031324
:1000480023088039A8002808AD002308A80028073D
:10005800A9002908B300A21F3228332834283314F2
:1000680033080319382839284828330A031D3D283E
:100078003E2846280030A3000030A2000030A1002E
:100088000030A000A21750280030A3000030A200C2
:100098000030A1000030A00027088039A8002808F7
:1000A800AD062708A8002807A9002908B200A61F3E
:1000B8005E285F28602832143208031964286528EE
:1000C8007428320A031D69286A2872280030A7009C
:1000D8000030A6000030A5000030A400A6177C2838
:1000E8000030A7000030A6000030A5000030A400B2
:1000F800320803198028812886283308031D85289B
:1001080086288F280030A3000030A2000030A1000C
:100118000030A000822B2008A8002808F00026083C
:100128000A128A1177270A128A1171088312031397
:10013800B9007008B8003808A800A901AA01AB01E5
:100148002B08B1002A08B0002908AF002808AE0023
:100158003908A800A901AA01AB012B08B7002A0891
:10016800B6002908B5002808B4002108A800280806
:10017800F00025080A128A1177270A128A117108D5
:1001880083120313B9007008B8003808A800A90141
:10019800AA01AB012808AE07290803110318013E7C
:1001A8000319D728AF072A0803110318013E0319BA
:1001B800DE28B0072B0803110318013E0319E528B0
:1001C800B1073908A800A901AA01AB012808B4079A
:1001D800290803110318013E0319F328B5072A0853
:1001E80003110318013E0319FA28B6072B08031157
:1001F8000318013E03190129B7072208A800280897
:10020800F00024080A128A1177270A128A11710845
:1002180083120313B9007008B8003808A800A901B0
:10022800AA01AB012808AE07290803110318013EEB
:1002380003191F29AF072A0803110318013E0319E0
:100248002629B0072B0803110318013E03192D298D
:10025800B1073908A800A901AA01AB012808B40709
:10026800290803110318013E03193B29B5072A0879
:1002780003110318013E03194229B6072B0803117D
:100288000318013E03194929B7070830A8000310CD
:10029800AE0DAF0DB00DB10DA80B4B292108A8006C
:1002A8002808F00024080A128A1177270A128A11EE
:1002B800710883120313B9007008B8003808A80041
:1002C8003908A900AA01AB012808AE0729080311BB
:1002D8000318013E03197129AF072A0803110318EF
:1002E800013E03197829B0072B0803110318013EB2
:1002F80003197F29B1072008A8002808F00025085D
:100308000A128A1177270A128A11710883120313B5
:10031800B9007008B8003808A8003908A900AA016F
:10032800AB012808AE07290803110318013E031979
:100338009E29AF072A0803110318013E0319A529AE
:10034800B0072B0803110318013E0319AC29B107A4
:100358000830A8000310AE0DAF0DB00DB10DA80BFD
:10036800AE292008A8002808F00024080A128A11DB
:1003780077270A128A11710883120313B9007008CB
:10038800B8003808A8003908A900AA01AB01280854
:10039800AE07290803110318013E0319D429AF0732
:1003A8002A0803110318013E0319DB29B0072B089B
:1003B80003110318013E0319E229B1072108A80017
:1003C8002808F00026080A128A1177270A128A11CB
:1003D800710883120313B9007008B8003808A80020
:1003E8003908A900AA01AB012808B4072908031194
:1003F8000318013E0319012AB5072A080311031837
:10040800013E0319082AB6072B0803110318013EF9
:1004180003190F2AB7072208A8002808F0002508A2
:100428000A128A1177270A128A1171088312031394
:10043800B9007008B8003808A8003908A900AA014E
:10044800AB012808B407290803110318013E031952
:100458002E2AB5072A0803110318013E0319352A65
:10046800B6072B0803110318013E03193C2AB707E6
:100478002208A8002808F00026080A128A117727FF
:100488000A128A11710883120313B9007008B800A0
:100498003808A8003908A900AA01AB0108300310E0
:1004A800A80DA90DAA0DAB0DFF3E031D532A280860
:1004B800B407290803110318013E0319642AB50774
:1004C8002A0803110318013E03196B2AB6072B08E3
:1004D80003110318013E0319722AB7072E08A80052
:1004E8002F08A9003008AA003108AB001830031003
:1004F800AB0CAA0CA90CA80CFF3E031D7B2A2808EC
:10050800B407290803110318013E03198C2AB507FB
:100518002A0803110318013E0319932AB6072B086A
:1005280003110318013E03199A2AB7070830A800D7
:100538000310AE0DAF0DB00DB10DA80B9C2A3308FA
:100548003207A800A901A90D2808823EB800290889
:100558000318013EFF3EB900CE2A0130A80003105F
:10056800B40DB50DB60DB70DA80BB32AB11FBD2A32
:10057800BE2ABF2A34140130A8000310AE0DAF0DF7
:10058800B00DB10DA80BC12AFF30B8070318B90A7E
:10059800FF30B907B61FD12AD22AB12AB201B11F3A
:1005A800D62AD72AF32AFF302E05A800FF302F05B8
:1005B800A900FF303005AA007F303105AB002B08B9
:1005C8002A04290428040319EA2AEB2AEE2AB2018C
:1005D800B20AF32A341CF12AF22AF32AEB2A320847
:1005E8000319F72AF82A292B0130B4070030031819
:1005F8000130B507003003180130B6070030031882
:100608000130B707371C092B0A2B292B3408A800FF
:100618003508A9003608AA003708AB000130AC003D
:100628002B0DAB0CAA0CA90CA80CAC0B142B2B088B
:10063800B7002A08B6002908B5002808B400013018
:10064800B8070318B90A0030B9073908803AFF001B
:1006580080307F02031D322BFF303802031C352BFC
:10066800362B412B7F3083120313B7008030B6003E
:100678000030B5000030B400762B8312031339081C
:10068800803AFF0080307F02031D4C2B0130380276
:1006980003184F2B502B5C2B003083120313B70029
:1006A8000030B6000030B5000030B400AD01762B44
:1006B800831203133808A8002808B300FF30B405D4
:1006C800FF30B5057F30B6050030B705331C6D2BFC
:1006D8006E2B6F2BB6173308A8000310280CA9003F
:1006E8002908B7002D08A8002808B7043708A30070
:1006F8003608A2003508A1003408A00008000C1F25
:10070800862B872BFB2B1F0CC500450C0F39003A95
:10071800031D8F2B902B932B1E088600FA2B1F0C82
:10072800C500450C0F39013A031D9B2B9C2BFA2B56
:100738001E08C500C601C701C8014808F3004708DC
:10074800F2004608F1004508F00001300A128A114B
:10075800D3240A128A11730883120313A70072089C
:10076800A6007108A5007008A4003C30A300A030C2
:10077800A200A030A100A130A0000A128A112220F4
:100788000A128A11831203132308D0002208CF000B
:100798002108CE002008CD005008A7004F08A60069
:1007A8004E08A5004D08A4004230A300C830A2009E
:1007B8000030A1000030A0000A128A1122200A127B
:1007C8008A11831203132308BD002208BC002108E4
:1007D800BB002008BA000A128A118D250A128A1154
:1007E800831203133B08DE003A08DD000C130B1DCF
:1007F800FE2BFF2BC62C0A128A11CB270A128A114C
:100808000A128A110C270A128A11831203135E082E
:10081800803AFF0080307F02031D142C65305D0292
:10082800031C172C182C432C6430F0000030F10006
:10083800831203135E08F3005D08F2000A128A119E
:1008480009260A128A11710883120313DC00700842
:10085800DB005C08F1005B08F0006430F200003057
:10086800F3000A128A119E270A128A11700883124D
:100878000313DD027108031CDE03DE02922C8312CF
:1008880003135E08803AFF0080307F02031D4E2C60
:100898000B305D02031C512C522C7D2C0A30F000C9
:1008A8000030F100831203135E08F3005D08F200C4
:1008B8000A128A1109260A128A117108831203136F
:1008C800DA007008D9005A08F1005908F0000A3017
:1008D800F2000030F3000A128A119E270A128A11C8
:1008E800700883120313DD027108031CDE03DE02A5
:1008F800922C831203135E08803AFF0080307F0237
:10090800031D882C0A305D0203188B2C8C2C922C2A
:10091800831203135E08D8005D08D70083120313FF
:100928005F036004031D992C9A2CA42C5808F1002D
:100938005708F0000A128A1170260A128A11C52C6B
:1009480002305F066004031DAA2CAB2CB52C5A0894
:10095800F1005908F0000A128A1170260A128A1149
:10096800C52C03305F066004031DBB2CBC2CC52CB2
:100978005C08F1005B08F0000A128A1170260A125E
:100988008A110B11831203134C08FF004B088A00CD
:100998004A088400490E8300FE0E7E0E0900F80006
:1009A80078080319D82CD92CED2CF31FDC2CDD2C5E
:1009B800ED2C7009FA007109FB007209FC0073093B
:1009C800FD00FA0A0319FB0A0319FC0A0319FD0AB8
:1009D800F52C7308FD007208FC007108FB00700814
:1009E800FA007308720471047004031DFC2CFD2CBA
:1009F800062D0030F3000030F2000030F100003026
:100A0800F0008C2D9630F4007408F900182D013090
:100A1800F4007408F90701300310FD0CFC0CFB0C02
:100A2800FA0CFF3E031D102DFE307D05031D1D2D04
:100A38001E2D0B2D3A2D0130F4007408F9070130F2
:100A4800FA07003003180130FB07003003180130A3
:100A5800FC07003003180130FD0701300310FD0CBE
:100A6800FC0CFB0CFA0CFF3E031D322DFF307D05FC
:100A7800031D3F2D402D1F2D4C2D0130F902013053
:100A8800F4000310FA0DFB0DFC0DFD0DF40B452DC4
:100A9800FC1B4F2D502D562D023079020318552D71
:100AA800562D412D7918592D5A2D622DFF30FA05F2
:100AB800FF30FB057F30FC05FF30FD050310F90C06
:100AC8007908F400F501F601F70118300310F40D68
:100AD800F50DF60DF70DFF3E031D6A2D7408FA0497
:100AE8007508FB047608FC047708FD0478080319E8
:100AF8007E2D7F2D842DF31F822D832D842DFD17B0
:100B08007D08F3007C08F2007B08F1007A08F00009
:100B180008000310831203133C0D3D0DBE003E0870
:100B2800C4004408031D992D9A2DA32D0030BD0043
:100B38000030BC000030BB000030BA00082E3A0874
:100B4800BE003B08BF003C08C0003D08C1001F3084
:100B58000310C10CC00CBF0CBE0CFF3E031DAC2D16
:100B68003E08C2004208C300BC17FF30BA05FF3078
:100B7800BB05FF30BC050030BD059630C402C41F5C
:100B8800C62DC72DE12D4408803A973E0318CD2D78
:100B9800CE2DCF2D9A2D01300310BD0CBC0CBB0CF3
:100BA800BA0CFF3E031DD02D0130BE003E08C4071D
:100BB800031DDF2DE02DCF2DF82D20304402031C1E
:100BC800E62DE72DF32D9A2D0130BE000310BA0D46
:100BD800BB0DBC0DBD0DBE0BEA2D0130C40244088F
:100BE800031DF72DF82DE82D43080319FC2DFD2DC5
:100BF800082EBA09BB09BC09BD09BA0A0319BB0A00
:100C08000319BC0A0319BD0A0800F601F11F0D2ECD
:100C18000E2E152EF009F109F00A0319F10AF60152
:100C2800F60AF31F182E192E222EF209F309F20ADA
:100C38000319F30A0130F4007408F606F701F80105
:100C4800700871040319292E2A2E612EF501F50A60
:100C5800382E01300310F00DF10DFF3E031D2E2E2E
:100C68000130F4007408F507F11F3B2E3C2E2D2EA1
:100C780001300310F70DF80DFF3E031D3D2E7108DE
:100C88007302031D492E70087202031C4C2E4D2E50
:100C9800542E7008F2027108031CF303F302771450
:100CA80001300310F10CF00CFF3E031D552E0130EE
:100CB800F502031D602E612E3C2E76080319652E61
:100CC800662E6B2EF709F809F70A0319F80A78084F
:100CD800F1007708F0000800A32E3F3083120313B9
:100CE8008700C82E0630831203138700C82E5B3096
:100CF800831203138700C82E4F3083120313870013
:100D0800C82E6630831203138700C82E6D308312F5
:100D180003138700C82E7D30831203138700C82E63
:100D28000730831203138700C82E7F308312031302
:100D38008700C82E6F30831203138700C82E7108EE
:100D4800003A0319A82EC82E7008003A0319712E0C
:100D5800013A0319762E033A03197B2E013A031937
:100D6800802E073A0319852E013A03198A2E033A71
:100D780003198F2E013A0319942E0F3A0319992E4D
:100D8800013A03199E2EC82E08000A128A1142271A
:100D98000A128A110C3083160313A000A00BD22E5E
:100DA8000000831203139F18DA2EDB2ED52E1F0C9A
:100DB80083160313A000200C0F39003A031DE52EFB
:100DC800E62EED2E831203131F08C33904389F0043
:100DD800FE2E831203131F0C83160313A000200C8E
:100DE8000F39013A031DF92EFA2EFE2EC330831255
:100DF80003139F050C3083160313A000A00B022FCA
:100E08000000831203139F14D52E0A128A11122888
:100E1800013083120313DF070318E00A0030E007EC
:100E28006008803AFF0080307F02031D1D2F0430C8
:100E38005F02031C202F212F2F2F83120313DF01A2
:100E4800E0012F2F04308800412F02308800412F05
:100E580001308800412F831203136008003A0319F8
:100E6800362F412F5F08013A0319262F033A031939
:100E7800292F013A03192C2F412F0800033083161C
:100E8800031788008901831603130F088F39603808
:100E98008F000F14033085008601870188018312B3
:100EA80003131F14C3309F051F083F3940389F00A4
:100EB800831603131F129F169F138B170B170C17FC
:100EC800831203130C130B118B1683160313811251
:100ED8008111011581140114831203138501860100
:100EE800870188010800F800F401F5017008F20094
:100EF800F3017208F6007308F700781C842F852F19
:100F08008B2F7608F4070318F50A7708F5070130E0
:100F18000310F60DF70DFF3E031D8C2F0310F80C80
:100F28007808031D982F992F812F7508F1007408F0
:100F3800F0000800F401F501701CA32FA42FAA2FBC
:100F48007208F4070318F50A7308F507013003104F
:100F5800F20DF30DFF3E031DAB2F01300310F10C12
:100F6800F00CFF3E031DB22F70087104031DBD2F46
:100F7800BE2FA02F7508F1007408F0000800640067
:100F88008001840A0406031900340406C42F83125E
:080F9800031381010B11080095
:08400000FF3FFF3FFF3FFF3FC0
:04400E00D420FF3F7C
:00000001FF
