:100000000A128A110328372059200313831285010D
:100010000313831287010F20142019200B280618C0
:100020002320861828200B2806192D208619322017
:100030000B28861A091005080707A200221A0914BE
:100040000F3988000800662006182428850A080051
:1000500066208618292885030800662006192E28A0
:10006000870A08006620861933288703080083164C
:10007000031788018901831603138501831603136F
:100080000614861406158615861683160313860134
:100090008316031387018316031388018316031342
:1000A0008901831203138501860187018801890173
:1000B0000800031383160F178F120F120F14080076
:1000C0003230A1006620A10B622808009630A00003
:0600D000A00B68280800E7
:04400E00C430FF3F7C
:00000001FF
