:060000000A128A110C280F
:10000800FE00030EF7000A08F8000A128A11732985
:100018000A128A110F280A128A1190210A128A11CB
:10002800A6000A128A1191210A128A11A7000A123F
:100038008A1192210A128A11A8000A128A119321A0
:100048000A128A11A9000A128A1194210A128A1125
:10005800AA00F001F101F201F301F40183010A128F
:100068008A1136280A128A11FF200A128A110330CF
:1000780083120313A400A40B3F28831203139F18B1
:10008800462847285028033083120313A400A40BE2
:100098004B28831203139F141930A0008030A1004D
:1000A8000A128A1140210A128A110130831203139D
:1000B800A0008030A1000A128A1140210A128A1178
:1000C8002D3083120313A0008030A1000A128A1178
:1000D80040210A128A11831203138C1E7428752872
:1000E8006F28A0287008A0007108A1000A128A11C0
:1000F80040210A128A112B3083120313A00080308A
:10010800A1000A128A1140210A128A11B028263049
:10011800A0000030A1000A128A1140210A128A1197
:100128002B3083120313A0008030A1000A128A1119
:1001380040210A128A11B0287208A400A5012508D6
:10014800003A0319A828B0282408313A0319762858
:10015800033A03198B28B0280A128A110C28FF1BAE
:10016800BD2883137F1883170008840A0319FF0A20
:10017800080000308A000408840A820700343134F9
:100188002E3420344C346534653472342034703461
:100198006F34743465346E34633469346F346D3459
:1001A8006534743472346F3420340D3400340D34B3
:1001B80020344D3465346E347534203470347234E0
:1001C80069346E3463346934703461346C343A346D
:1001D80020340D34003432342E3420344C34653419
:1001E8006534723420344134533443344934493407
:1001F80020340D3400340130831603178800890138
:10020800831603130F088F3940388F000F140130FD
:100218008500831203138501831603138601831255
:10022800031386011F083F3940389F00C3309F05DC
:10023800831603131F129F129F13831203131F1099
:100248008316031318121815831603178715193008
:100258008316031399009A018312031398178316C0
:100268000313181398168312031318168B170B17FA
:10027800831603138C160800F9015B290C1E452907
:1002880046295B297908A200A301220820078400D7
:1002980023080318230A2107FF000A128A11B32032
:1002A8000A128A1199000130A2002208F907790878
:1002B80083120313A200A301220820078400230845
:1002C8000318230A2107FF000A128A11B3200A1211
:1002D8008A11003A031D71297229422908008312E4
:1002E80003130C1F7829792981291E08F500F601C6
:1002F8007508F0007608F1000C138C1E84298529F6
:1003080089291A08F5007508F20078088A00770E1E
:100318008300FE0E7E0E09004134533443344934C1
:02032800493456
:08400000FF3FFF3FFF3FFF3FC0
:04400E00D420FF3F7C
:00000001FF
