:060000000A128A110C280F
:10000800FE00030EF2000A08F3000A128A111528EE
:100018000A128A110F28F501F60183010A128A11C2
:100028000929831203130C1F1A281B2883281F0C65
:10003800F000700C0F39003A031D232824284828A3
:100048001E08F0000310700C7B3E95001E08013955
:10005800F000F00E17087006CF3970069700831667
:1000680003131E08F00007300310F00CFF3E031DB9
:1000780038287008F100F10E83120313170871066F
:10008800EF397106970082281F0CF000700C0F39A9
:10009800013A031D5028512875281E08F000031046
:1000A800700C7B3E9B001E080139F000F00E17080B
:1000B8007006CF3970069700831603131E08F000E8
:1000C80007300310F00CFF3E031D65287008F1008F
:1000D800F10E8312031317087106EF3971069700A2
:1000E80082281F0CF000700C0F39023A031D7D287E
:1000F8007E2882281E08F0007008F6000C130B1DDD
:1001080086288728A2280A128A1156210A128A11DB
:100118000130F0007008F507750883120313860094
:100128007508031D982899289A28081475087606D2
:10013800031D9F28A028A12808100B1173088A0006
:10014800720E8300FE0E7E0E090007308316031719
:10015800880089017030831603138F040F14073049
:100168008500831203138501831603138601831206
:10017800031386018316031388018312031388016E
:100188001F083F3940389F00C3309F05831603136B
:100198001F129F129F13831203131F148316031336
:1001A80007153F308312031397051708F0390C38E9
:1001B80097000F309D040F309500CF3097050F3012
:1001C8009B008701FF30831603138700FA309200E3
:1001D800033083120313920412158C108C1CF5281B
:1001E800F628F2288C108316031387010711811251
:1001F80001120115811401148B170B170C178312A8
:1002080003130C130B118B1608000A128A11A9206C
:100218000A128A110A128A1151210A128A111030FF
:10022800F400F40B15290000831203139F181D29ED
:100238001E2918291F0CF400740C0F39003A031DED
:10024800262927292C291F08C33904389F00452946
:100258001F0CF400740C0F39013A031D3429352999
:100268003A291F08C33908389F0045291F0CF40094
:10027800740C0F39023A031D422943294529C3301A
:100288009F051030F400F40B472900008312031374
:100298009F1418290A128A110C288312031381014A
:0E02A8000B1108008312031381010B110800D3
:08400000FF3FFF3FFF3FFF3FC0
:04400E00D420FF3F7C
:00000001FF
