:060000000A128A11142906
:100200008A010A140F3982073F3406345B344F34B5
:1002100066346D347D3407347F346F3477347C3406
:1002200039345E3479347134382152215921031321
:10023000831286010B1D1A296721860AA30A060864
:100240000F39860023080F390A3A0319080A0F39B3
:100250008800672105186D21851873212208002167
:1002600087002208083A031D3629CF0688011A297B
:100270000317831683160317880189018316031356
:10028000051485140313831686018316031387014F
:10029000880103138312A201A3018501860187014E
:1002A00088010800031383160F140F128F120F1703
:1002B00008000313831681110115811401148112A2
:1002C000011203138312003081000B110800031385
:1002D0008312003081000B11080005186D29220AD5
:1002E0000F39A20008008518732922030F39A200D4
:1002F00008003230A1007F21A10B7B290800963035
:08030000A000A00B81290800F8
:04400E00C430FF3F7C
:00000001FF
