:060000000A128A11142906
:100200008A010A140F3982073F3406345B344F34B5
:1002100066346D347D3407347F346F3477347C3406
:1002200039345E347934713431214B215221031336
:10023000831286010B1D1A296021060A0F398600D8
:10024000230A0A3C0F39A3000319080A0F39880052
:1002500060210518662185186C212208002187007D
:100260001A29031783168316031788018901831639
:1002700003130514851403138316860183160313D1
:100280008701880103138312A201A301850186015E
:10029000870188010800031383160F140F128F12B1
:1002A0000F1708000313831681110115811401141F
:1002B0008112011203138312003081000B11080018
:1002C00003138312003081000B1108000518662902
:1002D000220A0F39A200080085186C2922030F3961
:1002E000A20008003230A1007821A10B7429080077
:0A02F0009630A000A00B7A29080048
:04400E00C430FF3F7C
:00000001FF
