:060000000A128A110C280F
:10000800FE00030EF1000A08F2000A128A1197286E
:100018000A128A110F28F50183010A128A1114287D
:100028000A128A115B200A128A110330F300F30BBB
:100038001B281E28831203139F18232824282C28E2
:100048000330F300F30B26282928831203139F1487
:1000580085130430F4003D30F300F30B3128F40B22
:100068003128362883160313141C3B283C283628CD
:100078008312031313088800750893000430F400F2
:100088003D30F300F30B4628F40B46284B28831227
:10009800031385170430F4003D30F300F30B5228A6
:1000A800F40B522857281E280A128A110C280130EE
:1000B800831603178800890101308316031385000E
:1000C8008601103087008801831203138501860199
:1000D80087018801831603130F088F3940388F0072
:1000E8000F14831203131F083F3940389F00C33091
:1000F8009F05831603131F129F129F138312031366
:100108001F14F03094051412941683160313141751
:1001180094178B170B170C178C15831203130C13DA
:100128008C1193010800831203130C1F9C289D282F
:10013800A2281E08F0007008F5000C138C1DA528D5
:10014800A628A7288C1172088A00710E8300FE0E5B
:040158007E0E09000E
:08400000FF3FFF3FFF3FFF3FC0
:04400E00D420FF3F7C
:00000001FF
