:060000000A128A11142906
:10000800F000030EF100031383120B181F200B19C5
:100018001220710E8300F00E700E09000313831274
:10002800FF3081000B11122234187A21B4189F2155
:1000380034193422080006182428B408083AB400F1
:1000480086182B28B40D3410B4193414B4110B10BD
:0200580008009E
:100200008A010A140F3982073F3406345B344F34B5
:1002100066346D347D3407347F346F3477347C3406
:1002200039345E34793471342621502157215F21CD
:10023000712103138312341434181A22B41827229C
:10024000412246224B22502255221C290317831695
:1002500088018901031383168501860187018801BE
:10026000061486140615861503138312850186016C
:1002700087018801B401B501A101AC01AD01AE0156
:10028000AF01A201A301A401A501A801A901AA012E
:10029000AB01B001B101B201B301A00135140800F6
:1002A000031383160F140F138F160F160800031372
:1002B00083168112811101158114011408000313A2
:1002C0008316960116149614161596159501151495
:1002D00095141515951581130113031383120B1033
:1002E0000800031383128B170B170B118B160B10BF
:1002F0008B150800A10A21083B3C03180800AC0A32
:10030000A1012C08093C03180800AD0AAC012D0816
:10031000053C03180800AE0AAD012E08093C03187D
:100320000800AF0AAE012F08023C031808002D0890
:10033000043C031808002014201803220800201889
:100340000800A20A2208093C03180800A30AA20117
:10035000A708013C0318E921A708023C0318F6216D
:10036000A708033C0318E921A708043C0318DC2173
:10037000A708053C0318E921A708063C0318DC215F
:10038000A708073C0318E921A708083C0318E9213E
:10039000A708093C0318DC21A7080A3C0318E92137
:1003A000A7080B3C0318DC21A7080C3C0318E92123
:1003B000A7080C3CA70108002308033C0318080009
:1003C0002208003C031808002614261808000922F9
:1003D00008002308033C031808002208013C031806
:1003E0000800261426180800092208002308023CE9
:1003F000031808002208083C0318080026142618D1
:10040000080009220800A101AC01AD01AE01AF0155
:1004100008002610A40A2408093C03180800A50AAD
:10042000A4010800B50D3510351A351435123508FC
:10043000880008002C080021B0002D080021B10020
:100440002E080021B2002F080021B3000800240864
:100450000021B00025080021B10022080021B200CF
:1004600023080021B300080028080021B000290853
:100470000021B1002A080021B2002B080021B3009E
:100480000800081C0800300887000800881C0800C5
:10049000310887000800081D08003208870008009E
:1004A000881D080033088700080034080F398500CC
:0204B000080042
:04400E00C420FF3F8C
:00000001FF
